:020000040800F2
:100000006006002011020008190200081B02000807
:100010001D0200081F020008210200080000000065
:1000200000000000000000000000000023020008A3
:10003000250200080000000027020008290200082D
:100040002B0200082B0200082B0200082B020008DC
:100050002B0200082B0200082B0200082B020008CC
:100060002B0200082B0200082B0200082B020008BC
:100070002B0200082B0200082B0200082B020008AC
:100080002B0200082B0200082B0200082B0200089C
:100090002B0200082B0200082B0200082B0200088C
:1000A0002B0200082B0200082B0200082B0200087C
:1000B0002B02000800000000000000002B020008D6
:1000C0002B0200082B0200082B0200082B0200085C
:1000D0002B0200082B0200082B0200082B0200084C
:1000E0002B0200082B0200080000000000000000A6
:1000F0000000000000000000000000000000000000
:10010000000000002B020008000000002B02000885
:1001100000000000000000002B0200082B02000875
:100120002B0200082B0200082B0200082B020008FB
:100130002B0200080000000000000000000000008A
:100140002B0200082B0200082B0200080000000010
:100150002B0200082B0200082B0200082B020008CB
:100160002B0200082B0200082B02000800000000F0
:100170002B0200082B020008000000000000000015
:100180002B0200082B0200082B02000800F002F8E6
:1001900000F02EF80AA090E8000C82448344AAF1F3
:1001A0000107DA4501D100F023F8AFF2090EBAE8F1
:1001B0000F0013F0010F18BFFB1A43F0010318479B
:1001C000FC0700000C080000002300240025002686
:1001D000103A28BF78C1FBD8520728BF30C148BFAA
:1001E0000B6070471FB500F0E3FB1FBD10B510BDDD
:1001F00000F031F81146FFF7F5FF00F009FB00F0C1
:100200004FF803B4FFF7F2FF03BC00F057F800000B
:100210000948804709480047FEE7FEE7FEE7FEE79A
:10022000FEE7FEE7FEE7FEE7FEE7FEE704480549D6
:10023000054A064B70470000C10700088D01000801
:1002400060000020600600206002002060020020A4
:10025000704770477047754600F02CF8AE460500B1
:100260006946534620F00700854618B020B5FFF7D1
:10027000DDFFBDE820404FF000064FF000074FF0D3
:1002800000084FF0000B21F00701AC46ACE8C009B4
:10029000ACE8C009ACE8C009ACE8C0098D467047BD
:1002A00010B50446AFF300802046BDE81040FFF7CC
:1002B000A8BF000000487047000000200149182036
:1002C000ABBEFEE726000200704710B50022622197
:1002D000022000F01DFA0D2000F064FA012000F069
:1002E00061FA00F04DFA002400BF00E0641C49F6FA
:1002F00040408442FAD300226221022000F008FA32
:100300000D2000F04FFA022000F04CFA00F038FA0D
:1003100000226221022000F0FBF9112000F042FAD5
:100320000B2000F03FFA00F02BFA0022622102209D
:1003300000F0EEF9122000F035FA002000F032FA59
:1003400000F01EFA00226221022000F0E1F91320E1
:1003500000F028FAC02000F025FA00F011FA00227F
:100360006221022000F0D4F9152000F01BFA0120D0
:1003700000F018FA00F004FA00226221022000F0D6
:10038000C7F92A2000F00EFA3A2000F00BFA00F02C
:10039000F7F900226221022000F0BAF9232000F0D0
:1003A00001FA202000F0FEF900F0EAF900226221B3
:1003B000022000F0ADF9242000F0F4F9202000F034
:1003C000F1F900F0DDF900226221022000F0A0F92D
:1003D000252000F0E7F9202000F0E4F900F0D0F942
:1003E00000226221022000F093F90D2000F0DAF9DA
:1003F000062000F0D7F900F0C3F9002262210220A4
:1004000000F086F9092000F0CDF9082000F0CAF9C3
:1004100000F0B6F900226221022000F079F90A20EA
:1004200000F0C0F90A2000F0BDF900F0A9F900229F
:100430006221022000F06CF9022000F0B3F9802064
:1004400000F0B0F900F09CF900226221022000F0D7
:100450005FF9202000F0A6F9212000F0A3F900F0B8
:100460008FF900226221022000F052F9212000F0D1
:1004700099F9932000F096F900F082F910BD10B5BB
:10048000002400226221012000F042F9082000F03F
:1004900089F900F075F901226221032000F038F992
:1004A00000F028F9044300F025F944EA002400F0A4
:1004B00021F944EA004400F063F9204610BD000031
:1004C0007948C06C40F001007749C8640846C06CA8
:1004D00040F00200C8644FF09040006820F47010B3
:1004E0004FF0904108600846006840F42010086012
:1004F0000846406820F4C06048600846806840F4C0
:10050000701088600846C06820F47010C860084603
:10051000406A20F47F614FF090404162406A40F0B1
:1005200070014FF090404162406A40F4E0614FF04A
:10053000904041625D48006820F470005B490860AB
:100540000846006840F420000860081D006840F478
:100550004060091D0860081D006840F47000091D16
:100560000860081D006820F47000091D08604F48ED
:10057000406A20F47F414D484162406A40F4806106
:100580004A484162406A40F48041484841624FF025
:100590009040006820F440604FF0904108600846A9
:1005A000006840F4806008600846406820F0200041
:1005B00048600846806820F4406088600846C0684B
:1005C00020F44060C8600846006820F440300860AD
:1005D0000846006840F4803008600846406820F40F
:1005E000807048600846806820F440308860084683
:1005F000C06820F44030C8602C48006820F0030038
:100600002A4908600846006840F001000860081D9B
:10061000006820F00100091D0860081D006820F036
:100620000300091D0860081D006820F00300091D73
:1006300008601E48006820F07F401C49086008469A
:10064000006840F07F400860081D006820F470409A
:10065000091D0860081D006820F07F40091D086022
:10066000081D006820F07F40091D08604FF0904091
:10067000006820F0C0004FF0904108600846006814
:1006800040F0400008600846406820F008004860DC
:100690000846806820F0C00088600846C06820F0E6
:1006A000C000C8607047000000100240000400480D
:1006B0000D48806D40F480000B4988650B48006848
:1006C00020F0010009490860084810300068084916
:1006D00008430649103108600448006840F00100F2
:1006E00002490860704700000010024000580040B6
:1006F0009129700000BF0549096801F00401002933
:10070000F9D002490C310968C8B270471858004046
:1007100010B500BF184B1B68C3F3C033164C2468D8
:10072000C4F380146340002BF4D1134B143B1B68BB
:10073000124C2340104C143C236023461B6843EAB0
:100740004103236023461B6843EA82232360234638
:100750001B6843EA0043236023461B6823F0807331
:10076000236023461B6823F00073236023461B6825
:1007700043F40053236010BD1858004000F800FFF8
:1007800000BF0748006800F040000028F9D0044886
:100790001438006840F480400149143908607047FB
:1007A0001858004000BF0549096801F001010029FF
:1007B000F9D0024910310860704700001858004015
:1007C0001048006840F470000E4908600E48006848
:1007D00040F001000C49086000208860084600686D
:1007E0000A490840084908608814C860084600683B
:1007F00020F48020086000208861C8030149803906
:100800000860704788ED00E000100240FFFFF6EA44
:1008100000F012F8FFF754FEFFF74AFF4FF0904048
:10082000806940F020004FF090418861FFF74DFD56
:1008300001E0FFF724FEFCE75A48006840F400702E
:10084000584908605848806D40F080505649886586
:100850005448006840F4807052490860534800686A
:1008600040F40070514908600846006840F4806018
:1008700008600846006820F4807008600846006838
:1008800020F0070008600846006840F00400086097
:1008900045489030006820F018004349C1F89000A6
:1008A0000846D0F8900040F00100C1F8900000BF69
:1008B0003D489030006800F002000028F8D03A4827
:1008C000006840F06000384908600846006840F061
:1008D000040008600846006840F00100086000BF9E
:1008E0003148006800F002000028F9D02E48006866
:1008F00020F080702C49086000BF2B48006800F091
:1009000000700028F9D12848C06820F0030026496B
:10091000C8600846C06840F00100C8600846C0686A
:1009200020F07000C8600846C06820F0C060C86051
:100930000846C06820F4FE40C8600846C06840F41D
:100940002050C8600846006840F08070086000BF12
:100950001548006800F000700028F9D01248C068FF
:1009600040F080701049C8600846806843F6F07116
:1009700088430D498860084680688860084680681A
:1009800088600846806888600846806840F00300F8
:10099000886000BF0448806800F00C000C28F9D182
:1009A000704700000070004000100240002002402C
:1009B0004FF04070E1EE100A70470000CC090008CB
:0C09C0000000002060060000C8010008D4
:0400000508000211DC
:00000001FF
