:020000040800F2
:10000000E80700202D02000835020008370200082A
:10001000390200083B0200083D0200080000000011
:100020000000000000000000000000003F02000887
:1000300041020008000000004302000845020008D9
:10004000470200084702000847020008470200086C
:10005000470200084702000847020008470200085C
:10006000470200084702000847020008470200084C
:10007000470200084702000847020008470200083C
:10008000470200084702000847020008470200082C
:10009000470200084702000847020008470200081C
:1000A000470200084702000847020008470200080C
:1000B000470200080000000000000000470200089E
:1000C00047020008470200084702000847020008EC
:1000D00047020008470200084702000847020008DC
:1000E000470200084702000800000000000000006E
:1000F0000000000000000000000000000000000000
:10010000000000004702000800000000470200084D
:10011000000000000000000047020008470200083D
:10012000470200084702000847020008470200088B
:10013000470200080000000000000000000000006E
:1001400047020008470200084702000800000000BC
:10015000470200084702000847020008470200085B
:10016000470200084702000847020008000000009C
:1001700047020008470200080000000000000000DD
:1001800047020008470200084702000800F002F892
:1001900000F03CF80AA090E8000C82448344AAF1E5
:1001A0000107DA4501D100F031F8AFF2090EBAE8E3
:1001B0000F0013F0010F18BFFB1A43F0010318479B
:1001C0005C0900007C090000103A24BF78C878C19F
:1001D000FAD8520724BF30C830C144BF04680C604D
:1001E000704700000023002400250026103A28BF95
:1001F00078C1FBD8520728BF30C148BF0B60704799
:100200001FB500F085FC1FBD10B510BD00F031F822
:100210001146FFF7F5FF00F069FB00F04FF803B45B
:10022000FFF7F2FF03BC00F057F8000009488047D1
:1002300009480047FEE7FEE7FEE7FEE7FEE7FEE7C8
:10024000FEE7FEE7FEE7FEE704480549054A064BE0
:1002500070470000ED0700088D010008E80100204C
:10026000E8070020E8030020E803002070477047FB
:100270007047754600F02CF8AE46050069465346B7
:1002800020F00700854618B020B5FFF7DDFFBDE878
:1002900020404FF000064FF000074FF000084FF0ED
:1002A000000B21F00701AC46ACE8C009ACE8C0097E
:1002B000ACE8C009ACE8C0098D46704710B50446EB
:1002C000AFF300802046BDE81040FFF7A8BF000054
:1002D000004870478401002001491820ABBEFEE7AA
:1002E00026000200704710B54FF09040806940F042
:1002F00020004FF09041886100226221022000F02E
:100300001DFA0D2000F064FA012000F061FA00F0FF
:100310004DFA00226221022000F010FA0D2000F0B8
:1003200057FA022000F054FA00F040FA002262214D
:10033000012000F003FA002000F04AFA00F036FA3B
:1003400001226221104600F0F9F900F0E9F900F00D
:100350002DFA00226221012000F0F0F9012000F0C6
:1003600037FA00F023FA01226221104600F0E6F984
:1003700000F0D6F900F01AFA00226221022000F003
:10038000DDF9112000F024FA0B2000F021FA00F032
:100390000DFA00226221022000F0D0F9122000F0B4
:1003A00017FA002000F014FA00F000FA002262218F
:1003B000022000F0C3F9132000F00AFAC02000F078
:1003C00007FA00F0F3F900226221022000F0B6F9EA
:1003D000152000F0FDF9012000F0FAF900F0E6F92F
:1003E00000226221022000F0A9F92A2000F0F0F991
:1003F0003A2000F0EDF900F0D9F900226221022044
:1004000000F09CF9232000F0E3F9202000F0E0F94F
:1004100000F0CCF900226221022000F08FF92420A4
:1004200000F0D6F9202000F0D3F900F0BFF9002247
:100430006221022000F082F9252000F0C9F9202075
:1004400000F0C6F900F0B2F900226221022000F0AB
:1004500075F9092000F0BCF90F2000F0B9F900F09F
:10046000A5F900226221022000F068F90A2000F0BC
:10047000AFF90A2000F0ACF900F098F900226221EF
:10048000022000F05BF9202000F0A2F9912000F09A
:100490009FF900F08BF900226221022000F04EF952
:1004A0000D2000F095F9042000F092F900F07EF99B
:1004B00010BD70B50546002400226221012000F025
:1004C0003DF9082000F084F900F070F90122622162
:1004D000032000F033F900BF03E000F021F92855B4
:1004E000641C032CF9D300F061F970BD7948C06C2D
:1004F00040F001007749C8640846C06C40F0020033
:10050000C8644FF09040006820F470104FF09041A4
:1005100008600846006840F42010086008464068FB
:1005200020F4C06048600846806840F4701088601D
:100530000846C06820F47010C8600846406A20F47D
:100540007F614FF090404162406A40F070014FF08F
:1005500090404162406A40F4E0614FF09040416257
:100560005D48006820F470005B4908600846006838
:1005700040F420000860081D006840F44060091D38
:100580000860081D006840F47000091D0860081D1F
:10059000006820F47000091D08604F48406A20F48C
:1005A0007F414D484162406A40F480614A4841625F
:1005B000406A40F48041484841624FF090400068F2
:1005C00020F440604FF0904108600846006840F415
:1005D000806008600846406820F0200048600846B7
:1005E000806820F4406088600846C06820F440605D
:1005F000C8600846006820F440300860084600687B
:1006000040F4803008600846406820F480704860FC
:100610000846806820F4403088600846C06820F4AE
:100620004030C8602C48006820F003002A49086068
:100630000846006840F001000860081D006820F0CE
:100640000100091D0860081D006820F00300091D55
:100650000860081D006820F00300091D08601E489E
:10066000006820F07F401C4908600846006840F0A0
:100670007F400860081D006820F47040091D086074
:10068000081D006820F07F40091D0860081D0068F3
:1006900020F07F40091D08604FF09040006820F076
:1006A000C0004FF0904108600846006840F04000EC
:1006B00008600846406820F00800486008468068E6
:1006C00020F0C00088600846C06820F0C000C86004
:1006D0007047000000100240000400480D48806D83
:1006E00040F480000B4988650B48006820F0010049
:1006F000094908600848103000680849084306495D
:10070000103108600448006840F0010002490860A8
:10071000704700000010024000580040912970000E
:1007200000BF0549096801F004010029F9D0024918
:100730000C310968C8B270471858004010B500BFA6
:10074000184B1B68C3F3C033164C2468C4F38014E1
:100750006340002BF4D1134B143B1B68124C234015
:10076000104C143C236023461B6843EA410323607A
:1007700023461B6843EA8223236023461B6843EA1F
:100780000043236023461B6823F0807323602346C5
:100790001B6823F00073236023461B6843F4005357
:1007A000236010BD1858004000F800FF00BF074844
:1007B000006800F040000028F9D0044814380068B0
:1007C00040F48040014914390860704718580040CF
:1007D00000BF0549096801F001010029F9D002496B
:1007E0001031086070470000185800401048006839
:1007F00040F470000E4908600E48006840F00100A7
:100800000C49086000208860084600680A490840D2
:10081000084908608814C8600846006820F48020F1
:10082000086000208861C80301498039086070476A
:1008300088ED00E000100240FFFFF6EA1B48006E62
:1008400040F48040194908661948006820F001000A
:10085000174908600846006820F010200860081D4D
:10086000006820F44050091D086011480C300068F1
:100870006FF30F000E490C3108600846006842F221
:100880008D0108430A490C3108600948006840F0AE
:100890000100074908600846006840F00800086049
:1008A0000846006840F004000860704700100240ED
:1008B0000038014000BF0549096801F080010029A6
:1008C000F9D002490C310880704700001C38014003
:1008D000002000BF03E00021034A1154401CB0F582
:1008E000C07FF8D3704700000400002000F054F8E7
:1008F000FFF7FCFDFFF7F2FEFFF7A0FFFFF7F3FCA9
:1009000000BF41E0002262210120FFF717FF07200E
:10091000FFF75EFFFFF74AFF012262211046FFF753
:100920000DFFFFF7FDFE19490870FFF73FFF002498
:10093000FFF7CEFF00BF15E01548FFF7BAFD1448DA
:10094000817804EB4400134A11541148417804EBB8
:100950004400401C11540E48017804EB4400801CF4
:100960001154641C094800788442E5D3002404E053
:100970000849085DFFF79EFF641C0448007800EBFF
:100980004000A042F4D800BFBCE7000003000020F4
:1009900000000020040000205A48006840F4007065
:1009A000584908605848806D40F080505649886525
:1009B0005448006840F48070524908605348006809
:1009C00040F40070514908600846006840F48060B7
:1009D00008600846006820F48070086008460068D7
:1009E00020F0070008600846006840F00400086036
:1009F00045489030006820F018004349C1F8900045
:100A00000846D0F8900040F00100C1F8900000BF07
:100A10003D489030006800F002000028F8D03A48C5
:100A2000006840F06000384908600846006840F0FF
:100A3000040008600846006840F00100086000BF3C
:100A40003148006800F002000028F9D02E48006804
:100A500020F080702C49086000BF2B48006800F02F
:100A600000700028F9D12848C06820F0030026490A
:100A7000C8600846C06840F00100C8600846C06809
:100A800020F07000C8600846C06820F0C060C860F0
:100A90000846C06820F4FE40C8600846C06840F4BC
:100AA0002050C8600846006840F08070086000BFB1
:100AB0001548006800F000700028F9D01248C0689E
:100AC00040F080701049C8600846806843F6F071B5
:100AD00088430D49886008468068886008468068B9
:100AE00088600846806888600846806840F0030097
:100AF000886000BF0448806800F00C000C28F9D121
:100B000070470000007000400010024000200240CA
:100B10004FF04070E1EE100A704700003C0B0008F7
:100B20000000002004000000C8010008400B00087D
:100B300004000020E4070000E401000800000000B9
:040000050800022DC0
:00000001FF
